:020000040800F2
:1000000080060020690100087101000873010008E2
:100010007501000877010008790100080000000060
:100020000000000000000000000000007B0100084C
:100030007D010008000000007F0100088101000828
:100040008301000883010008830100088301000880
:100050008301000883010008830100088301000870
:1000600000000000830100088301000883010008EC
:1000700083010008830100088301000800000000DC
:1000800083010008810200080000000083010008CD
:100090008301000883010008830100088301000830
:1000A0008301000883010008830100088301000820
:1000B00083010008000000000000000000000000B4
:1000C00083010008000000008301000800F002F82E
:1000D00000F03AF80AA090E8000C82448344AAF1A8
:1000E0000107DA4501D100F02FF8AFF2090EBAE8A6
:1000F0000F0013F0010F18BFFB1A43F0010318475C
:10010000D8070000F8070000103A24BF78C878C16B
:10011000FAD8520724BF30C830C144BF04680C600D
:10012000704700000023002400250026103A28BF55
:1001300078C1FBD8520728BF30C148BF0B60704759
:100140001FB51FBD10B510BD00F031F81146FFF707
:10015000F7FF00F0BDFA00F04FF803B4FFF7F2FF2D
:1001600003BC00F057F800000948804709480047E1
:10017000FEE7FEE7FEE7FEE7FEE7FEE7FEE7FEE757
:10018000FEE7FEE704480549054A064B70470000B4
:1001900025020008CD000008800000208006002015
:1001A000800200208002002070477047704775462B
:1001B00000F02CF8AE4605006946534620F00700D3
:1001C000854618B020B5FFF7DDFFBDE820404FF0B1
:1001D00000064FF000074FF000084FF0000BAC4650
:1001E000ACE8C009ACE8C009ACE8C009ACE8C0099B
:1001F00021F007018D46704710B50446AFF300802B
:100200002046BDE81040FFF7A8BF00000048704737
:100210001000002001491820ABBEFEE726000200B6
:100220007047000041F20000C4F20200016841F092
:100230000101016001688907FCD5416821F00301D3
:10024000416000BF416811F00C0FFBD101684FF60F
:10025000FF72CFF6F262114001600021416041F669
:100260001071C1624FF4801101634FF41F0181606E
:100270004EF60850CEF200004FF00061016070476A
:10028000F0B581B040F27000C2F20000017840F297
:1002900000060131CAB2FF3A18BF0A460270D0B256
:1002A000CD214843C00A00EB8000A2EB4000C4B25D
:1002B0000025C2F20006012708E000BF81B24FF01E
:1002C000904000F0FDF80135082D0AD0315D07FAA5
:1002D00005F00842F2D081B24FF0904000F0F2F801
:1002E000F1E741F21000C4F20000016821F00101C1
:1002F000016001B0F0BD000041F20401C4F202014E
:100300000A6800F00F0022F0F00242EA00100860D4
:100310007047000041F20401C4F202010A6800F0D3
:10032000070022F4E06242EA002008607047000003
:1003300041F20401C4F202010A6800F0070022F44D
:10034000605242EAC020086070470000042888BF5D
:100350007047DFE800F0030C19262F0041F200007F
:10036000C4F20200026861F300020260704741F2C9
:100370000000C4F20200026801F0010122F48032A0
:1003800042EA01410160704741F20000C4F20200FC
:10039000026801F0010122F0807242EA016101600D
:1003A000704741F20000C4F20200026A61F30002E9
:1003B0000262704741F20000C4F20200426A61F337
:1003C000000242627047000041F20002010CC4F2D8
:1003D0000202895800F01F0021FA00F000F001002D
:1003E0007047000041F23001C4F202010A6800F0D7
:1003F000010022F0007242EA40600860704700008D
:1004000041F23001C4F202010A6800F0010042F03A
:1004100000720A604A6A22F4007242EA402048628E
:100420007047000041F2000200F01F034FF0010C82
:10043000C4F2020201290CFA03F14FEA104083587A
:1004400014BF23EA010119438150704741F20000B3
:10045000C4F20200016841F00101016001688907EE
:10046000FCD5416821F00301416000BF416811F0F3
:100470000C0FFBD101684FF6FF72CFF6F26211400C
:1004800001600021416041F61071C1624FF480119A
:1004900001634FF41F0181607047000041F20401C5
:1004A000C4F202010A6860F301020A6070470000AA
:1004B00041F20400C4F202000068C0F381007047FA
:1004C0008162704781617047F0B50A88002A08BFD1
:1004D000F0BD00234FF0030C4FF0010E002405E0A7
:1004E000520804F1010403F1020326D0D507F7D026
:1004F00005680CFA03F6B54305608D7907689D40E1
:100500003D43056045680EFA04F7BD4345600D792B
:100510004768A5403D4345608568B5438560CD7912
:1005200087689D403D438560C568B543C5604D798A
:10053000C6689D403543C560D2E7F0BD00690840FC
:10054000401AB0FA80F0400970470000B0B582B0A0
:1005500011240120C0F2140400F0AEF9012000F0D3
:10056000A1F9002000F0A8F90020FFF749FF0020C2
:100570000121FFF7EBFE0120FFF734FF0020FFF71A
:10058000BBFE20460121FFF74DFFFFF75FFF42F260
:100590000000C4F2020040F251110160002001216C
:1005A000FFF7D4FE0120FFF70FFF0128FAD100204A
:1005B000FFF7A2FE0020FFF7BBFE0020FFF7AAFE18
:1005C0000120FFF71DFF0020FFF768FFFFF770FF16
:1005D0000028FBD100F0EEF8601C01210125FFF797
:1005E00021FF0420C0F21C000121FFF71BFF0024A3
:1005F000C0F2012469464FF09040CDE90054FFF766
:1006000063FF022569464FF0904001940095FFF783
:100610005BFF0420009069464FF090400194FFF783
:1006200053FF0820009069464FF090400194FFF777
:100630004BFF1020009069464FF090400194FFF767
:1006400043FF2020009069464FF090400194FFF74F
:100650003BFF4020009069464FF090400194FFF727
:1006600033FF40F20010C0F20020CDE9005040F20C
:100670000040C4F600006946FFF726FF1120232141
:10068000242200F05DF841F20000C4F20000C168CD
:100690004BF67F3241F00101C160016821F0080191
:1006A0000160016821F002010160016841F08001F0
:1006B0000160816A62F30F018162C16A4FF47A714D
:1006C000C162016841F00101016002B0B0BD0000EB
:1006D00040F2004441F22C08C4F60004C4F20008C1
:1006E000FFF734FF40F2740640F2780540F6CC097B
:1006F000C2F200060027C2F20005C0F6000900E0C1
:10070000376020460221FFF719FF0028F9D100E0E9
:10071000376020460221FFF711FF0028F8D0297822
:10072000481C022988BF0020C1B202292870E7D8DE
:1007300040B259F82000D8F80010C8F80000DFE7F0
:10074000B0B54EF60C5ECEF2000EDEF800304FF083
:10075000FF35C3F3022383F00704042C28BF0424CD
:10076000033B05FA04F438BF0023A143994005FA7E
:1007700003F39A4300F00F03043B4EF2001C734452
:10078000CEF2000C11430C33B0F1FF3F4FEA0111E0
:1007900000EB0C02C8BF02F540730028197048BF77
:1007A000B0BD00F01F01012202FA01F140094CF82E
:1007B0002010B0BDB0B541F2040441F20025C4F2EE
:1007C0000204C0F27A05FFF773FE02280CD000285D
:1007D00050D1206D80054DD5E06A800144BF46F6BA
:1007E0000045C0F2DC2545E02068A16AC0F3004C5A
:1007F00000291AD421682268C1F38341C2F34172EF
:100800001301581C0F29034618BF0223002A18BFE2
:100810000346BCF1000F03EB010020D140F60011AC
:10082000C0F23D0100FB01F524E0A06AA36AC0F319
:10083000031EA06A40F60011C0F23D01C3F3082375
:10084000BCF1000F00F0070003D02268920358BFEC
:10085000294659430EFA00F0B1FBF0F50AE0216891
:10086000890301D4454305E040F60011C0F23D0183
:1008700000FB01F540F20C00C2F2000005602168A7
:1008800004A2C1F30311515C026822FA01F1016074
:10089000B0BD00BF00000000000000000102030422
:1008A0000607080943F20401C4F200010A6860F374
:1008B00002020A607047000043F20001C4F2000126
:1008C000002818BF45F2555008607047E803000043
:1008D0002C01000032000000F80800080000002091
:1008E000100000000801000808090008100000209E
:1008F00070060000240100083F065B4F666D7D070F
:080900007F6F000000127A0075
:040000050800016985
:00000001FF
